C V1104  28 DEZ 2011     COPYRIGHT CORREIOS                 LOGRADOUROS                                                                                                                                                                                                                                                                                                                                                                                                                                                                                                                                                                                
DDF      00001778Braslia                                                                     00001221Setor Residencial Leste (Planaltina)                                         00000000                                                                        Rua                                                                                                        00681850A                                                                       R A                                                                     73358170NS                                                                                                        
DDF      00001778Braslia                                                                     00052436Residencial So Francisco II (Planaltina)                                    00000000                                                                        Rua                                                                                                        00741906A                                                                       R A                                                                     73365723NS                                                                                                        
DDF      00001778Braslia                                                                     00001208Arapoanga (Planaltina)                                                       00000000                                                                        Quadra                                                                                                     00741366A                                                                       Q A                                                                     73368340NS                                                                                                        
DDF      00001778Braslia                                                                     00052440Residencial Sandray (Planaltina)                                             00000000                                                                        Rua                                                                                                        00742111A                                                                       R A                                                                     73366053NS                                                                                                        
DDF      00001778Braslia                                                                     00052435Vila Dimas (Planaltina)                                                      00000000                                                                        Conjunto                                                                                                   00741860A                                                                       Cj A                                                                    73365573NS                                                                                                        
DDF      00001778Braslia                                                                     00052439Recanto Feliz (Planaltina)                                                   00000000                                                                        Conjunto                                                                                                   00742093A                                                                       Cj A                                                                    73366003NS                                                                                                        
DDF      00001778Braslia                                                                     00052437Residencial So Francisco I (Planaltina)                                     00000000                                                                        Rua                                                                                                        00742022A                                                                       R A                                                                     73365763NS                                                                                                        
DDF      00001778Braslia                                                                     00052432Fazenda Mestre D'Armas (Etapa II - Planaltina)                               00000000                                                                        Conjunto                                                                                                   00742330A                                                                       Cj A                                                                    73366753NS                                                                                                        
DDF      00001778Braslia                                                                     00052444Veneza III (Planaltina)                                                      00000000                                                                        Rua                                                                                                        00742231A                                                                       R A                                                                     73366283NS                                                                                                        
DDF      00001778Braslia                                                                     00052463Residencial Sarandy (Planaltina)                                             00000000                                                                        Mdulo                                                                                                     00742634A                                                                       Mod A                                                                   73401203NS                                                                                                        
DDF      00001778Braslia                                                                     00052433Veneza II (Planaltina)                                                       00000000                                                                        Rua                                                                                                        00741835A                                                                       R A                                                                     73365483NS                                                                                                        
DDF      00001778Braslia                                                                     00052434Veneza I (Planaltina)                                                        00000000                                                                        Rua                                                                                                        00741837A                                                                       R A                                                                     73365533NS                                                                                                        
DDF      00001778Braslia                                                                     00052457Vale do Sol (Planaltina)                                                     00000000                                                                        Conjunto                                                                                                   00742039A                                                                       Cj A                                                                    73375540NS                                                                                                        
DDF      00001778Braslia                                                                     00001213Portal do Amanhecer (Planaltina)                                             00000000                                                                        Conjunto                                                                                                   00742160A                                                                       Cj A                                                                    73366113NS                                                                                                        
DDF      00001778Braslia                                                                     00052441Portal do Amanhecer I (Planaltina)                                           00000000                                                                        Conjunto                                                                                                   00742183A                                                                       Cj A                                                                    73366143NS                                                                                                        
DDF      00001778Braslia                                                                     00052442Vila Feliz (Planaltina)                                                      00000000                                                                        Conjunto                                                                                                   00742207A                                                                       Cj A                                                                    73366203NS                                                                                                        
DDF      00001778Braslia                                                                     00052443Residencial Flamboyant (Planaltina)                                          00000000                                                                        Conjunto                                                                                                   00742211A                                                                       Cj A                                                                    73366243NS                                                                                                        
NDF      00001778Braslia                                                                     00001176Setor Oeste (Gama)                                                           00000000                                                                        Quadra                                                                                                     00751299A                                                                       Q A                                                                     72420470NLote C1    00036551S                                                                                     
NDF      00001778Braslia                                                                     00001176Setor Oeste (Gama)                                                           00000000                                                                        Quadra                                                                                                     00751299A                                                                       Q A                                                                     72420480NLote C2    00036552S                                                                                     
NDF      00001778Braslia                                                                     00001176Setor Oeste (Gama)                                                           00000000                                                                        Quadra                                                                                                     00751299A                                                                       Q A                                                                     72420440NLote A     00036548S                                                                                     
NDF      00001778Braslia                                                                     00001176Setor Oeste (Gama)                                                           00000000                                                                        Quadra                                                                                                     00751299A                                                                       Q A                                                                     72420450NLote B     00036549S                                                                                     
NDF      00001778Braslia                                                                     00001176Setor Oeste (Gama)                                                           00000000                                                                        Quadra                                                                                                     00751299A                                                                       Q A                                                                     72420460NLote C     00036550S                                                                                     
DDF      00001778Braslia                                                                     00001226Vila Vicentina (Planaltina)                                                  00000000                                                                        Avenida                                                                                                    00046682A                                                                       Av A                                                                    73320030NS                                                                                                        
DDF      00001778Braslia                                                                     00034325Setor Militar Urbano                                                         00000000                                                                        Rua                                                                                                        00592268A                                                                       R A                                 (Vl RCG)                            70631005NS                                                                                                        
DDF      00001778Braslia                                                                     00001167Vila Planalto                                                                00000000                                                                        Praa                                                                                                      00624523A                                                                       P A                                (Acamp Rabelo)                      70804025NS                                                                                                        
DDF      00001778Braslia                                                                     00052445Condomnio Prado (Planaltina)                                                00000000                                                                        Conjunto                                                                                                   00742272A                                                                       Cj A                                                                    73366323NS                                                                                                        
DDF      00001778Braslia                                                                     00052450Portal do Amanhecer III (Planaltina)                                         00000000                                                                        Conjunto                                                                                                   00742365A                                                                       Cj A                                                                    73366773NS                                                                                                        
DDF      00001778Braslia                                                                     00052438San Sebastian (Planaltina)                                                   00000000                                                                        Conjunto                                                                                                   00742056A                                                                       Cj A                                                                    73365803NS                                                                                                        
NDF      00001778Braslia                                                                     00001242Riacho Fundo I                                                               00000000                                                                        Quadra                                                                                                     00046959AC                                                                      Q AC                                                                    71810100N1          00003354S                                                                                     
NDF      00001778Braslia                                                                     00001242Riacho Fundo I                                                               00000000                                                                        Quadra                                                                                                     00046959AC                                                                      Q AC                                                                    71810200N2          00003355S                                                                                     
NDF      00001778Braslia                                                                     00001242Riacho Fundo I                                                               00000000                                                                        Quadra                                                                                                     00046959AC                                                                      Q AC                                                                    71810300N3          00003356S                                                                                     
NDF      00001778Braslia                                                                     00001242Riacho Fundo I                                                               00000000                                                                        Quadra                                                                                                     00046959AC                                                                      Q AC                                                                    71810400N4          00003357S                                                                                     
NDF      00001778Braslia                                                                     00001231Santa Maria                                                                  00000000                                                                        Quadra                                                                                                     00046855AC                                                                      Q AC                                                                    72501100N101        00002707S                                                                                     
KDF      00001778Braslia                                                                     00001231Santa Maria                                                                  00000000                                                                        Quadra                                                                                                     00046855AC                                                                      Q AC                                                                    72501101N101        Bloco                               A          0000270700011317S                              
KDF      00001778Braslia                                                                     00001231Santa Maria                                                                  00000000                                                                        Quadra                                                                                                     00046855AC                                                                      Q AC                                                                    72501102N101        Bloco                               B          0000270700011318S                              
KDF      00001778Braslia                                                                     00001231Santa Maria                                                                  00000000                                                                        Quadra                                                                                                     00046855AC                                                                      Q AC                                                                    72501103N101        Bloco                               C          0000270700011319S                              
KDF      00001778Braslia                                                                     00001231Santa Maria                                                                  00000000                                                                        Quadra                                                                                                     00046855AC                                                                      Q AC                                                                    72501104N101        Bloco                               D          0000270700011320S                              
KDF      00001778Braslia                                                                     00001231Santa Maria                                                                  00000000                                                                        Quadra                                                                                                     00046855AC                                                                      Q AC                                                                    72501105N101        Bloco                               E          0000270700011321S                              
KDF      00001778Braslia                                                                     00001231Santa Maria                                                                  00000000                                                                        Quadra                                                                                                     00046855AC                                                                      Q AC                                                                    72501106N101        Bloco                               F          0000270700011322S                              
NDF      00001778Braslia                                                                     00001231Santa Maria                                                                  00000000                                                                        Quadra                                                                                                     00046855AC                                                                      Q AC                                                                    72502100N102        00002708S                                                                                     
KDF      00001778Braslia                                                                     00001231Santa Maria                                                                  00000000                                                                        Quadra                                                                                                     00046855AC                                                                      Q AC                                                                    72502101N102        Bloco                               A          0000270800011323S                              
KDF      00001778Braslia                                                                     00001231Santa Maria                                                                  00000000                                                                        Quadra                                                                                                     00046855AC                                                                      Q AC                                                                    72502102N102        Bloco                               B          0000270800011324S                              
KDF      00001778Braslia                                                                     00001231Santa Maria                                                                  00000000                                                                        Quadra                                                                                                     00046855AC                                                                      Q AC                                                                    72502103N102        Bloco                               C          0000270800011325S                              
KDF      00001778Braslia                                                                     00001231Santa Maria                                                                  00000000                                                                        Quadra                                                                                                     00046855AC                                                                      Q AC                                                                    72502104N102        Bloco                               D          0000270800011326S                              
KDF      00001778Braslia                                                                     00001231Santa Maria                                                                  00000000                                                                        Quadra                                                                                                     00046855AC                                                                      Q AC                                                                    72502105N102        Bloco                               E          0000270800011327S                              
NDF      00001778Braslia                                                                     00001231Santa Maria                                                                  00000000                                                                        Quadra                                                                                                     00046855AC                                                                      Q AC                                                                    72504100N104        00002709S                                                                                     
KDF      00001778Braslia                                                                     00001231Santa Maria                                                                  00000000                                                                        Quadra                                                                                                     00046855AC                                                                      Q AC                                                                    72504101N104        Bloco                               A          0000270900011328S                              
KDF      00001778Braslia                                                                     00001231Santa Maria                                                                  00000000                                                                        Quadra                                                                                                     00046855AC                                                                      Q AC                                                                    72504102N104        Bloco                               B          0000270900011329S                              
KDF      00001778Braslia                                                                     00001231Santa Maria                                                                  00000000                                                                        Quadra                                                                                                     00046855AC                                                                      Q AC                                                                    72504103N104        Bloco                               C          0000270900011330S                              
NDF      00001778Braslia                                                                     00001231Santa Maria                                                                  00000000                                                                        Quadra                                                                                                     00046855AC                                                                      Q AC                                                                    72505100N105        00002710S                                                                                     
KDF      00001778Braslia                                                                     00001231Santa Maria                                                                  00000000                                                                        Quadra                                                                                                     00046855AC                                                                      Q AC                                                                    72505101N105        Bloco                               A          0000271000011331S                              
KDF      00001778Braslia                                                                     00001231Santa Maria                                                                  00000000                                                                        Quadra                                                                                                     00046855AC                                                                      Q AC                                                                    72505102N105        Bloco                               B          0000271000011332S                              
KDF      00001778Braslia                                                                     00001231Santa Maria                                                                  00000000                                                                        Quadra                                                                                                     00046855AC                                                                      Q AC                                                                    72505103N105        Bloco                               C          0000271000011333S                              
KDF      00001778Braslia                                                                     00001231Santa Maria                                                                  00000000                                                                        Quadra                                                                                                     00046855AC                                                                      Q AC                                                                    72505104N105        Bloco                               D          0000271000011334S                              
KDF      00001778Braslia                                                                     00001231Santa Maria                                                                  00000000                                                                        Quadra                                                                                                     00046855AC                                                                      Q AC                                                                    72505105N105        Bloco                               E          0000271000011335S                              
NDF      00001778Braslia                                                                     00001231Santa Maria                                                                  00000000                                                                        Quadra                                                                                                     00046855AC                                                                      Q AC                                                                    72506100N106        00002711S                                                                                     
KDF      00001778Braslia                                                                     00001231Santa Maria                                                                  00000000                                                                        Quadra                                                                                                     00046855AC                                                                      Q AC                                                                    72506101N106        Bloco                               A          0000271100011336S                              
KDF      00001778Braslia                                                                     00001231Santa Maria                                                                  00000000                                                                        Quadra                                                                                                     00046855AC                                                                      Q AC                                                                    72506102N106        Bloco                               B          0000271100011337S                              
KDF      00001778Braslia                                                                     00001231Santa Maria                                                                  00000000                                                                        Quadra                                                                                                     00046855AC                                                                      Q AC                                                                    72506103N106        Bloco                               C          0000271100011338S                              
KDF      00001778Braslia                                                                     00001231Santa Maria                                                                  00000000                                                                        Quadra                                                                                                     00046855AC                                                                      Q AC                                                                    72506104N106        Bloco                               D          0000271100011339S                              
#