C V1104  28 DEZ 2011    © COPYRIGHT CORREIOS                 LOGRADOUROS                                                                                                                                                                                                                                                                                                                                                                                                                                                                                                                                                                                
DES      00001816Aracruz                                                                      00039551Polivalente                                                                  00000000                                                                        Rua                                                                                                        00645532A                                                                       R A                                                                     29190560NS                                                                                                        
DES      00001816Aracruz                                                                      00043433Vila Rica                                                                    00000000                                                                        Rua                                                                                                        00646153A                                                                       R A                                                                     29194114NS                                                                                                        
DES      00001816Aracruz                                                                      00037730Barra do Riacho                                                              00000000                                                                        Rua                                                                                                        00746211Abdon Pereira                                                           R Abdon Pereira                                                         29197507NS                                                                                                        
DES      00001816Aracruz                                                                      00043426Nova Conquista                                                               00000000                                                                        Rua                                                                                                        00645828Abílio Flaurindo                                                        R Abílio Flaurindo                                                      29192842NS                                                                                                        
DES      00001816Aracruz                                                                      00043447Praia Formosa                                                                00000000                                                                        Rua                                                                                                        00646947Abílio Oliveira Santos                                                  R Abílio O Santos                                                       29199324NS                                                                                                        
DES      00001816Aracruz                                                                      00037702Coqueiral                                                                    00000000                                                                        Rua                       das                                                                              00646926Acácias                                                                 R das Acácias                                                           29199156NS                                                                                                        
DES      00001816Aracruz                                                                      00037702Coqueiral                                                                    00000000                                                                        Rua                                                                                                        00646933Açaí                                                                    R Açaí                                                                  29199177NS                                                                                                        
DES      00001816Aracruz                                                                      00037730Barra do Riacho                                                              00000000                                                                        Rua                                                                                                        00746903Acendino Pinto da Vitória                                               R Acendino P da Vitória                                                 29197714NS                                                                                                        
DES      00001816Aracruz                                                                      00043450Mar Azul                                                                     00000000                                                                        Rua                                                                                                        00646769Acre                                                                    R Acre                                                                  29198230NS                                                                                                        
DES      00001816Aracruz                                                                      00043456Vila do Riacho                                                               00000000                                                                        Rua                                                                                                        00646599Adalto Francisco Marins                                                 R Adalto F Marins                                                       29197316NS                                                                                                        
DES      00001816Aracruz                                                                      00037731Barra do Sahy                                                                00000000                                                                        Rua                                                                                                        00646708Adamastor Mattos                                                        R Adamastor Mattos                                                      29198055NS                                                                                                        
SES      00001816Aracruz                                                                      00031353Centro                                                                       00000000                                                                        Rua                                                                                                        00645438Adão Monteiro Bermudes                                                  R Adão M Bermudes                                                       29190246N1          99999      A00045895S                                                                         
SES      00001816Aracruz                                                                      00043435Limão                                                                        00000000                                                                        Rua                                                                                                        00645438Adão Monteiro Bermudes                                                  R Adão M Bermudes                                                       29194439N1          99999      I00046172S                                                                         
SES      00001816Aracruz                                                                      00043437Vila Nova                                                                    00000000                                                                        Rua                                                                                                        00645438Adão Monteiro Bermudes                                                  R Adão M Bermudes                                                       29194569N1          99999      A00046173S                                                                         
SES      00001816Aracruz                                                                      00043435Limão                                                                        00000000                                                                        Rua                                                                                                        00645438Adão Monteiro Bermudes                                                  R Adão M Bermudes                                                       29194354N2          99998      P00046171S                                                                         
SES      00001816Aracruz                                                                      00031353Centro                                                                       00000000                                                                        Rua                                                                                                        00645412Ademar da Silva Rocha                                                   R Ademar da S Rocha                                                     29190208N1          99999      A00045872S                                                                         
DES      00001816Aracruz                                                                      00037731Barra do Sahy                                                                00000000                                                                        Avenida                                                                                                    00646695Ademar dos Reis                                                         Av Ademar dos Reis                                                      29198010NS                                                                                                        
DES      00001816Aracruz                                                                      00031353Centro                                                                       00000000                                                                        Rua                                                                                                        00645406Ademir Prando Lorenzutti                                                R Ademir P Lorenzutti                                                   29190204NS                                                                                                        
DES      00001816Aracruz                                                                      00043456Vila do Riacho                                                               00000000                                                                        Avenida                                                                                                    00646602Adival Vicente dos Santos                                               Av Adival V dos Santos                                                  29197144NS                                                                                                        
DES      00001816Aracruz                                                                      00043427Jequitibá                                                                    00000000                                                                        Travessa                                                                                                   00703407Adolfo Sarmenghi                                                        Tv Adolfo Sarmenghi                                                     29193035NS                                                                                                        
DES      00001816Aracruz                                                                      00043428Novo Jequitibá                                                               00000000                                                                        Rua                                                                                                        00646024Adolfo Sarmenghi                                                        R Adolfo Sarmenghi                                                      29193198NS                                                                                                        
DES      00001816Aracruz                                                                      00043427Jequitibá                                                                    00000000                                                                        Rua                                                                                                        00645933Adolfo Sarmenghi                                                        R Adolfo Sarmenghi                                                      29193135NS                                                                                                        
DES      00001816Aracruz                                                                      00043443Jacupemba                                                                    00000000                                                                        Rua                                                                                                        00805480Afonso Lúcio Bobbio                                                     R Afonso L Bobbio                                                       29196166NS                                                                                                        
DES      00001816Aracruz                                                                      00043425Morobá                                                                       00000000                                                                        Rua                                                                                                        00645787África                                                                  R África                                                                29192727NS                                                                                                        
DES      00001816Aracruz                                                                      00043434Guanabara                                                                    00000000                                                                        Rua                                                                                                        00646179Ágata                                                                   R Ágata                                                                 29194248NS                                                                                                        
DES      00001816Aracruz                                                                      00043419Planalto                                                                     00000000                                                                        Rua                       das                                                                              00796213Águias                                                                  R das Águias                                                            29190802NS                                                                                                        
DES      00001816Aracruz                                                                      00043450Mar Azul                                                                     00000000                                                                        Rua                                                                                                        00646768Alagoas                                                                 R Alagoas                                                               29198227NS                                                                                                        
SES      00001816Aracruz                                                                      00043438Guaxindiba                                                                   00000000                                                                        Rua                                                                                                        00805510Alamir Nelson Bustamante                                                R Alamir N Bustamante                                                   29194736N1          99999      A00085750S                                                                         
SES      00001816Aracruz                                                                      00043437Vila Nova                                                                    00000000                                                                        Rua                                                                                                        00805510Alamir Nelson Bustamante                                                R Alamir N Bustamante                                                   29194519N1          99999      A00085751S                                                                         
DES      00001816Aracruz                                                                      00043445Nova Colatina                                                                00000000                                                                        Rua                                                                                                        00646507Alamyr Nelson Bustamente                                                R Alamyr N Bustamente                                                   29196512NS                                                                                                        
DES      00001816Aracruz                                                                      00037702Coqueiral                                                                    00000000                                                                        Rua                                                                                                        00646909Alba                                                                    R Alba                                                                  29199105NS                                                                                                        
DES      00001816Aracruz                                                                      00037730Barra do Riacho                                                              00000000                                                                        Rua                          Patriarca                                                                     00613880Albino Azaredo                                                          R Ptca Albino Azaredo                                                   29197509NS                                                                                                        
SES      00001816Aracruz                                                                      00031353Centro                                                                       00000000                                                                        Rua                                                                                                        00645444Alcides Alves de Oliveira                                               R Alcides A de Oliveira                                                 29190258N1          99999      A00045901S                                                                         
SES      00001816Aracruz                                                                      00043414Jardins                                                                      00000000                                                                        Rua                                                                                                        00645444Alcides Alves de Oliveira                                               R Alcides A de Oliveira                                                 29190332N1          99999      A00045913S                                                                         
SES      00001816Aracruz                                                                      00043421Segatto                                                                      00000000                                                                        Rua                                                                                                        00645444Alcides Alves de Oliveira                                               R Alcides A de Oliveira                                                 29192118N1          99999      A00045989S                                                                         
DES      00001816Aracruz                                                                      00043422Fátima                                                                       00000000                                                                        Rua                                                                                                        00803010Alcides Alves de Oliveira                                               R Alcides A de Oliveira                                                 29192217NS                                                                                                        
DES      00001816Aracruz                                                                      00043456Vila do Riacho                                                               00000000                                                                        Rua                                                                                                        00646513Alcides Francisco                                                       R Alcides Francisco                                                     29197013NS                                                                                                        
DES      00001816Aracruz                                                                      00031353Centro                                                                       00000000                                                                        Rua                                                                                                        00719254Aldemar Boff                                                            R Aldemar Boff                                                          29190048NS                                                                                                        
DES      00001816Aracruz                                                                      00043441Guaraná                                                                      00000000                                                                        Estrada                   do                                                                               00666955Alegre                                                                  Est do Alegre                                                           29195499NS                                                                                                        
SES      00001816Aracruz                                                                      00031353Centro                                                                       00000000                                                                        Rua                                                                                                        00623650Alegria                                                                 R Alegria                                                               29190135S1          755        I00045863S                                                                         
SES      00001816Aracruz                                                                      00031353Centro                                                                       00000000                                                                        Rua                                                                                                        00623650Alegria                                                                 R Alegria                                                               29190230S2          400        P00045889S                                                                         
SES      00001816Aracruz                                                                      00031353Centro                                                                       00000000                                                                        Rua                                                                                                        00623650Alegria                                                                 R Alegria                                                               29190018S402        750        P00045843S                                                                         
SES      00001816Aracruz                                                                      00039551Polivalente                                                                  00000000                                                                        Rua                                                                                                        00623650Alegria                                                                 R Alegria                                                               29190480S752        1298       P00045949S                                                                         
SES      00001816Aracruz                                                                      00039551Polivalente                                                                  00000000                                                                        Rua                                                                                                        00623650Alegria                                                                 R Alegria                                                               29190412S757        1299       I00045922S                                                                         
SES      00001816Aracruz                                                                      00043435Limão                                                                        00000000                                                                        Rua                                                                                                        00623650Alegria                                                                 R Alegria                                                               29194309S1300       99999      A00046160S                                                                         
DES      00001816Aracruz                                                                      00043451Praia do Sauê                                                                00000000                                                                        Rua                                                                                                        00646818Alexandre Rossoni                                                       R Alexandre Rossoni                                                     29198381NS                                                                                                        
DES      00001816Aracruz                                                                      00037730Barra do Riacho                                                              00000000                                                                        Rua                                                                                                        00646649Alexandrino Miranda                                                     R Alexandrino Miranda                                                   29197589NS                                                                                                        
DES      00001816Aracruz                                                                      00043445Nova Colatina                                                                00000000                                                                        Rua                                                                                                        00646473Alfredo Pinto                                                           R Alfredo Pinto                                                         29196318NS                                                                                                        
DES      00001816Aracruz                                                                      00043452Putiri                                                                       00000000                                                                        Rua                                                                                                        00646790Algas Verdes                                                            R Algas Verdes                                                          29198483NS                                                                                                        
DES      00001816Aracruz                                                                      00043452Putiri                                                                       00000000                                                                        Rua                                                                                                        00646789Algas Vermelhas                                                         R Algas Vermelhas                                                       29198480NS                                                                                                        
DES      00001816Aracruz                                                                      00043456Vila do Riacho                                                               00000000                                                                        Rua                                                                                                        00646573Alícia Flögles                                                          R Alícia Flögles                                                        29197054NS                                                                                                        
DES      00001816Aracruz                                                                      00037731Barra do Sahy                                                                00000000                                                                        Rua                                                                                                        00805623Almerinda Rosa Cardoso                                                  R Almerinda R Cardoso                                                   29198169NS                                                                                                        
DES      00001816Aracruz                                                                      00043449Itaparica                                                                    00000000                                                                        Rua                                                                                                        00796824Altamira de Almeida                                                     R Altamira de Almeida                                                   29199645NS                                                                                                        
DES      00001816Aracruz                                                                      00043456Vila do Riacho                                                               00000000                                                                        Avenida                                                                                                    00646588Álvaro de Souza                                                         Av Álvaro de Souza                                                      29197099NS                                                                                                        
DES      00001816Aracruz                                                                      00037730Barra do Riacho                                                              00000000                                                                        Beco                                                                                                       00746751Alyson Soares de Oliveira                                               Bc Alyson S de Oliveira                                                 29197519NS                                                                                                        
DES      00001816Aracruz                                                                      00043450Mar Azul                                                                     00000000                                                                        Rua                                                                                                        00646766Amazonas                                                                R Amazonas                                                              29198221NS                                                                                                        
DES      00001816Aracruz                                                                      00043435Limão                                                                        00000000                                                                        Rua                                                                                                        00805520Amazonita                                                               R Amazonita                                                             29194322NS                                                                                                        
DES      00001816Aracruz                                                                      00043438Guaxindiba                                                                   00000000                                                                        Rua                                                                                                        00646263Amazonita                                                               R Amazonita                                                             29194710NS                                                                                                        
DES      00001816Aracruz                                                                      00043434Guanabara                                                                    00000000                                                                        Rua                                                                                                        00796806Amazonita                                                               R Amazonita                                                             29194275NS                                                                                                        
#